{
  "_format": "hh-sol-artifact-1",
  "contractName": "Donation",
  "sourceName": "contracts/Donation.sol",
  "abi": [
    {
      "inputs": [],
      "stateMutability": "nonpayable",
      "type": "constructor"
    },
    {
      "inputs": [
        {
          "internalType": "string",
          "name": "name",
          "type": "string"
        },
        {
          "internalType": "string",
          "name": "message",
          "type": "string"
        }
      ],
      "name": "buyChai",
      "outputs": [],
      "stateMutability": "payable",
      "type": "function"
    },
    {
      "inputs": [],
      "name": "getMemos",
      "outputs": [
        {
          "components": [
            {
              "internalType": "string",
              "name": "name",
              "type": "string"
            },
            {
              "internalType": "string",
              "name": "message",
              "type": "string"
            },
            {
              "internalType": "uint256",
              "name": "timestamp",
              "type": "uint256"
            },
            {
              "internalType": "address",
              "name": "from",
              "type": "address"
            }
          ],
          "internalType": "struct Donation.Memo[]",
          "name": "",
          "type": "tuple[]"
        }
      ],
      "stateMutability": "view",
      "type": "function"
    }
  ],
  "bytecode": "0x608060405234801561001057600080fd5b5033600160006101000a81548173ffffffffffffffffffffffffffffffffffffffff021916908373ffffffffffffffffffffffffffffffffffffffff160217905550610956806100616000396000f3fe6080604052600436106100295760003560e01c80636a13d8591461002e578063865c51721461004a575b600080fd5b61004860048036038101906100439190610502565b610075565b005b34801561005657600080fd5b5061005f610214565b60405161006c91906106f8565b60405180910390f35b600034116100b8576040517f08c379a00000000000000000000000000000000000000000000000000000000081526004016100af9061071a565b60405180910390fd5b600160009054906101000a900473ffffffffffffffffffffffffffffffffffffffff1673ffffffffffffffffffffffffffffffffffffffff166108fc349081150290604051600060405180830381858888f19350505050158015610120573d6000803e3d6000fd5b50600060405180608001604052808481526020018381526020014281526020013373ffffffffffffffffffffffffffffffffffffffff168152509080600181540180825580915050600190039060005260206000209060040201600090919091909150600082015181600001908051906020019061019f9291906103f7565b5060208201518160010190805190602001906101bc9291906103f7565b506040820151816002015560608201518160030160006101000a81548173ffffffffffffffffffffffffffffffffffffffff021916908373ffffffffffffffffffffffffffffffffffffffff16021790555050505050565b60606000805480602002602001604051908101604052809291908181526020016000905b828210156103ee578382906000526020600020906004020160405180608001604052908160008201805461026b9061087f565b80601f01602080910402602001604051908101604052809291908181526020018280546102979061087f565b80156102e45780601f106102b9576101008083540402835291602001916102e4565b820191906000526020600020905b8154815290600101906020018083116102c757829003601f168201915b505050505081526020016001820180546102fd9061087f565b80601f01602080910402602001604051908101604052809291908181526020018280546103299061087f565b80156103765780601f1061034b57610100808354040283529160200191610376565b820191906000526020600020905b81548152906001019060200180831161035957829003601f168201915b50505050508152602001600282015481526020016003820160009054906101000a900473ffffffffffffffffffffffffffffffffffffffff1673ffffffffffffffffffffffffffffffffffffffff1673ffffffffffffffffffffffffffffffffffffffff168152505081526020019060010190610238565b50505050905090565b8280546104039061087f565b90600052602060002090601f016020900481019282610425576000855561046c565b82601f1061043e57805160ff191683800117855561046c565b8280016001018555821561046c579182015b8281111561046b578251825591602001919060010190610450565b5b509050610479919061047d565b5090565b5b8082111561049657600081600090555060010161047e565b5090565b60006104ad6104a88461076b565b61073a565b9050828152602081018484840111156104c557600080fd5b6104d084828561083d565b509392505050565b600082601f8301126104e957600080fd5b81356104f984826020860161049a565b91505092915050565b6000806040838503121561051557600080fd5b600083013567ffffffffffffffff81111561052f57600080fd5b61053b858286016104d8565b925050602083013567ffffffffffffffff81111561055857600080fd5b610564858286016104d8565b9150509250929050565b600061057a838361067f565b905092915050565b61058b81610801565b82525050565b600061059c826107ab565b6105a681856107ce565b9350836020820285016105b88561079b565b8060005b858110156105f457848403895281516105d5858261056e565b94506105e0836107c1565b925060208a019950506001810190506105bc565b50829750879550505050505092915050565b6000610611826107b6565b61061b81856107df565b935061062b81856020860161084c565b6106348161090f565b840191505092915050565b600061064c601f836107f0565b91507f506c65617365207061792067726561746572207468616e2030206574686572006000830152602082019050919050565b6000608083016000830151848203600086015261069c8282610606565b915050602083015184820360208601526106b68282610606565b91505060408301516106cb60408601826106e9565b5060608301516106de6060860182610582565b508091505092915050565b6106f281610833565b82525050565b600060208201905081810360008301526107128184610591565b905092915050565b600060208201905081810360008301526107338161063f565b9050919050565b6000604051905081810181811067ffffffffffffffff82111715610761576107606108e0565b5b8060405250919050565b600067ffffffffffffffff821115610786576107856108e0565b5b601f19601f8301169050602081019050919050565b6000819050602082019050919050565b600081519050919050565b600081519050919050565b6000602082019050919050565b600082825260208201905092915050565b600082825260208201905092915050565b600082825260208201905092915050565b600061080c82610813565b9050919050565b600073ffffffffffffffffffffffffffffffffffffffff82169050919050565b6000819050919050565b82818337600083830152505050565b60005b8381101561086a57808201518184015260208101905061084f565b83811115610879576000848401525b50505050565b6000600282049050600182168061089757607f821691505b602082108114156108ab576108aa6108b1565b5b50919050565b7f4e487b7100000000000000000000000000000000000000000000000000000000600052602260045260246000fd5b7f4e487b7100000000000000000000000000000000000000000000000000000000600052604160045260246000fd5b6000601f19601f830116905091905056fea2646970667358221220925c98b352ada2f1f20d4b5b59936856168efd4d0578e8307a448f767e80c54364736f6c63430008000033",
  "linkReferences": {},
  "deployedLinkReferences": {}
}